:100000000C9465010C94D7080C94B0080C948D01E5
:100010000C948D010C948D010C948D010C948D0128
:100020000C948D010C948D010C948D010C948D0118
:100030000C948D010C948D010C948D010C948D0108
:100040000C9466080C948D010C948D010C948D0118
:100050000C948D010C948D010C948D010C948D01E8
:100060000C94FE080C948D0120202020257320661E
:100070006F722053574545542053415449534641CC
:100080004354494F4E20202020002020202044456A
:100090004659205448452044454E54495354206FF6
:1000A0006E6C792025732020202000202020204104
:1000B0002048414E4446554C204F46204D4147492B
:1000C00043206A757374202573202020200020208F
:1000D0002020434C45414E534520594F5552205006
:1000E000414C4554544520666F72202573202020D2
:1000F000200020202020444F4E275420504F53549E
:10010000504F4E452043414E4459206F6E6C79202C
:1001100025732020202000202020205357454554BF
:1001200020445245414D5320535441525420484598
:100130005245206F6E6C79202573202020200020EE
:100140002020204D4F5554484741534D2054494D90
:1001500045206A75737420257320202020002020FC
:1001600020204F4D472057544620257320666F723C
:100170002043414E4459204C4F4C20202020002049
:100180002020205357454554454E20594F55522065
:10019000444159206F6E6C79202573202020200067
:1001A000257300000006400202CE12ED12E43F5912
:1001B00023000200240009C03FC0120008C0000054
:1001C00040000C3F0C0604DB008F00E6006920FDB8
:1001D000000700FF00EF000012000A4024C8008062
:1001E000098350BB02F7008F1239000F127900719A
:1001F00000BD00F60009121E0070243800360536D6
:10020000213F00F3003F20F320ED0001123E0030BB
:100210000C3628002DEE00090C390000210F0000DB
:10022000280800000158107820D8008E085808C00F
:10023000148E0470100010100A00363000D41050D4
:1002400010DC00700186045000882078001C00102B
:10025000081428002D8E024808490900128924C07C
:100260000C000000000000240027002A000000000D
:1002700000250028002B00040404040404040402E4
:100280000202020202030303030303010204081033
:100290002040800102040810200102040810200000
:1002A0000000080002010000030407000000000035
:1002B000000000A0017F015E013F011701F200CEA6
:1002C00000AB008A006800001D0A11241FBECFEF9A
:1002D000D8E0DEBFCDBF11E0A0E0B1E0E0E4F7E29E
:1002E00002C005900D92A435B107D9F722E0A4E52C
:1002F000B1E001C01D92A93FB207E1F711E0C5E6E8
:10030000D1E004C02197FE010E943512C436D10706
:10031000C9F70E94C20A0C949E130C94000090E04E
:10032000FC01E156FD4F2491FC01E557FD4F34914E
:10033000FC01E958FD4FE491EE23C9F0222339F086
:10034000233001F1A8F4213019F1223029F1F0E035
:10035000EE0FFF1FE359FD4FA591B4918FB7F894AD
:10036000EC91611126C030953E233C938FBF0895D8
:100370002730A9F02830C9F0243049F78091800057
:100380008F7D03C0809180008F7780938000DFCFC6
:1003900084B58F7784BDDBCF84B58F7DFBCF809113
:1003A000B0008F778093B000D2CF8091B0008F7D66
:1003B000F9CF3E2BDACFCF93DF93EC0180915E0231
:1003C00090915F02029749F4C130D10509F43BC016
:1003D0006CF560E0209709F437C080915E0290913F
:1003E0005F02049749F4C130D10509F45CC00CF0F8
:1003F00037C0209709F442C080915E0290915F025D
:10040000059709F0E5C0CA30D10508F0E1C0FE014A
:10041000E45FFD4F0C9435126B02770288029E0256
:10042000B902BB02C202CE02DF02E602C230D1052F
:10043000A9F060E0C330D10581F6809162020E948C
:100440008F0160E006C061E0809162020E948F012E
:1004500061E0809164020E948F01BFCF61E0EDCF27
:10046000C230D10539F1C330D10509F0C5CF61E003
:10047000809162020E948F0160E022C061E0809161
:1004800062020E948F0160E0809164020E948F01ED
:1004900061E0809166020E948F0160E080916802B5
:1004A0000E948F01A9CF60E0809162020E948F01BB
:1004B00061E0EACF60E0809162020E948F0161E01A
:1004C000809164020E948F0160E0809166020E9428
:1004D0008F0161E0E3CF60E0809162020E948F01B2
:1004E00061E0809164020E948F0161E00BC060E0D6
:1004F000809162020E948F0161E0809164020E94FB
:100500008F0160E0809166020E948F0160E010C060
:1005100060E0809162020E948F0161E0809164023C
:100520000E948F0160E0809166020E948F0161E06D
:10053000809168020E948F0161E015C060E08091A7
:1005400062020E948F0161E0809164020E948F012B
:1005500060E0809166020E948F0161E080916802F4
:100560000E948F0160E080916A02DF91CF910C942C
:100570008F0161E0E4CF61E0809162020E948F010F
:1005800060E0E2CF61E0809162020E948F0160E052
:10059000809164020E948F0161E0DBCF61E0809175
:1005A00062020E948F0160E0809164020E948F01CC
:1005B00061E0809166020E948F0160E0CFCF61E030
:1005C000809162020E948F0160E08BCF60E0F8CFE3
:1005D000DF91CF910895CF93DF9390E0FC01E55731
:1005E000FD4F249189589D4FFC0184918823D1F0BF
:1005F00090E0880F991FFC01ED59FD4FA591B49132
:10060000FC01E359FD4FC591D491623071F49FB75D
:10061000F8943C91822F809583238C93E8812E2B34
:1006200028839FBFDF91CF9108958FB7F894EC9105
:100630002E2B2C938FBFF6CF8E3008F08E50877004
:10064000806480937C0080917A00806480937A003B
:1006500080917A0086FDFCCF80917800909179009E
:1006600008953FB7F8948091F6019091F701A09119
:10067000F801B091F90126B5A89B05C02F3F19F0EC
:100680000196A11DB11D3FBFBA2FA92F982F882712
:10069000BC01CD01620F711D811D911D42E0660FED
:1006A000771F881F991F4A95D1F708954F925F923F
:1006B0006F927F928F929F92AF92BF92EF92FF9232
:1006C0000F931F93CF93DF93EC0181E090E0909321
:1006D00057028093560204E010E08AE0E82EF12CE5
:1006E000209709F467C00E94310380906C029090BB
:1006F0006D02A0906E02B0906F022B013C01481871
:1007000059086A087B088090580290905902A0907E
:100710005A02B0905B02481459046A047B0400F347
:1007200060936C0270936D0280936E0290936F02DF
:10073000809160029091610220915602309157029F
:100740002130310519F50196909361028093600282
:1007500020915C0230915D028217930721F4109280
:100760006102109260022197809160029091610273
:1007700020915E0230915F02B7012530310509F00A
:10078000B8010E9421120E94DB01AACF892B41F4FB
:1007900080915C0290915D0290936102809360026F
:1007A0008091600290916102019790936102809321
:1007B0006002D9CFDF91CF911F910F91FF90EF9001
:1007C000BF90AF909F908F907F906F905F904F9071
:1007D00008952FB7F8946091F2017091F301809120
:1007E000F4019091F5012FBF089581E08093F0010D
:1007F0000E94E9036093EC017093ED018093EE0198
:100800009093EF018091EA019091EB010196909312
:10081000EB018093EA010895089508950895E82F63
:10082000EE0FFF0BED59FE4F85919591A591B49177
:1008300030E020E0662311F020E030E4822B932B9F
:10084000089520919501260F3327331F213231055A
:10085000ECF420912002FC0190E080E0243069F06B
:1008600082E00895A09195012191AC014B585E4F13
:10087000A40FB52FB11D2C930196861798F3809184
:100880009501680F6093950180E0089581E00895D7
:100890001092200281E080931F021092FA0161E021
:1008A00082E10E948F0161E083E10E948F01E9EB08
:1008B000F0E080818E7F808380818D7F808388E4DB
:1008C0008093B80085E48093BC000895CF93DF93B4
:1008D00091E0909374018823B9F0C091B800D09151
:1008E000BA008091BC008A7B8093BC0060E082E10A
:1008F0000E948F0160E083E10E948F010E94480402
:10090000D093BA00C093B800DF91CF9108958F9231
:100910009F92AF92BF92CF92DF92EF92FF920F938E
:100920001F93CF93DF93D0914902D13208F0D7C003
:10093000182FC09148020E9431036B017C01809105
:10094000200281116BC082E08093200210931F026D
:100950008FEF80931E0210921D02D0931C02A8E21A
:10096000B2E0ECEFF1E080E0D81391C01092FB010F
:100970008091FB01CC0FC82BC093FB018091FA0141
:10098000813009F088C01092FA010E9431036B0196
:100990007C018091FB018093BB00809122029091A9
:1009A0002302A0912402B0912502892B8A2B8B2B44
:1009B000A1F00E94310300912202109123022091A4
:1009C0002402309125026C197D098E099F090617B2
:1009D00017072807390708F442C08091BC0083FD3F
:1009E000D8CF85EC8093BC000E9431036B017C0161
:1009F00080912002823009F450C080911E028F3F06
:100A000009F46FC080911E02803209F46CC080919D
:100A10001E02803309F469C084E026C0809122025E
:100A200090912302A0912402B0912502892B8A2B58
:100A30008B2B09F484CF0E94310380902202909086
:100A40002302A0902402B09025026C197D098E0922
:100A50009F0986169706A806B90608F070CF809100
:100A600021020E94660485E010922702109249023A
:100A700010922602DF91CF911F910F91FF90EF907E
:100A8000DF90CF90BF90AF909F908F9008959D91F1
:100A900091938F5F69CF85EEA5CF809122029091CF
:100AA0002302A0912402B0912502892B8A2B8B2B43
:100AB00009F49ECF0E94310300912202109123027B
:100AC00020912402309125026C197D098E099F091D
:100AD000061717072807390708F08ACFC0CF81E02B
:100AE000C3CF80E0C1CF82E0BFCF83E0BDCF089508
:100AF000E091BD018091BC01E81730F4F0E0EC5AC0
:100B0000FE4F808190E008958FEF9FEF08959091C0
:100B1000BD018091BC012FEF3FEF981748F4E92FFA
:100B2000F0E0EC5AFE4F208130E09F5F9093BD01D2
:100B3000C90108958091BC019091BD01891B990B59
:100B40000895CF92DF92EF92FF920F931F93CF936E
:100B5000DF937C01CB018A0120912602222389F0B8
:100B6000EB016B01C40ED51ECC15DD0569F0699152
:100B7000D701ED91FC910190F081E02DC70109951D
:100B8000F3CF642F0E942104C801DF91CF911F9100
:100B90000F91FF90EF90DF90CF900895CF93DF9368
:100BA0001F92CDB7DEB76983209126022223F9F088
:100BB00020914902203258F021E030E0FC013383DB
:100BC000228390E080E00F90DF91CF910895809193
:100BD0002702E82FF0E0E85DFD4F998190838F5F59
:100BE000809327028093490281E090E0ECCF61E09E
:100BF000CE0101960E942104F7CF682F8AE492E08B
:100C00000C94CE05CF93DF93D62FC72F282F269590
:100C100026954091DB025091DC02240F352F311DC7
:100C200091E090932602209348021092270210929E
:100C30004902837090E0880F991F0E94FD056D2F77
:100C40008AE492E00E94CE056C2F8AE492E00E9432
:100C5000CE0581E0DF91CF910C948704CF93C0E063
:100C60008091DF029091E002C81719063CF470E011
:100C700060E08C2F0E940206CF5FF2CFCF910895E3
:100C800090E080E00895FC019093E6028093E502F5
:100C90001092F0021092EF026115710511F46EEEE0
:100CA00072E07093E8026093E7024115510511F478
:100CB00048EC50E05093EA024093E902DF010D90C6
:100CC0000020E9F71197AE1BBF0B90E080E0208178
:100CD000222349F021812E3209F431963196019672
:100CE000A817B907A4F74091DF025091E0029C01D8
:100CF000241B350B2F5F3F4F12161306E4F430937D
:100D0000E2022093E1021092E4021092E3021092B8
:100D1000EB021092EC021092ED021092EE0221E032
:100D2000481759070CF420E02093F1028091E1026A
:100D30009091E202089521E030E0E1CF0F931F93FC
:100D4000CF938C01C0E08091DF029091E002C81740
:100D500019067CF5F801808181110AC060E080E20B
:100D60000E940F04BC018C2F0E940206CF5FEBCFC4
:100D700091819E3289F4803264F061E00E940F0418
:100D8000BC018C2F0E9402060F5F1F4F0F5F1F4F89
:100D9000EDCF8FEF9FEFF4CF803244F060E00E9400
:100DA0000F04BC018C2F0E940206F0CF8FEF9FEF43
:100DB000F8CFCF911F910F910895CF92DF92EF92CC
:100DC000FF921F93CF93DF936B017C018091E5022B
:100DD0009091E6022091F1022223C9F10E949E0621
:100DE0008091E3029091E4022091E1023091E202CD
:100DF000009739F0A901415051098417950709F06E
:100E00007FC04091E7025091E802052E000C660B6E
:100E1000770B4C0D5D1D6E1D7F1D4093EB025093B3
:100E2000EC026093ED027093EE02821793070CF0D0
:100E30006CC001969093E4028093E30281E0DF911D
:100E4000CF911F91FF90EF90DF90CF900895C091C8
:100E5000EF02D091F002C80FD91F10E08091DF029D
:100E60009091E002181719061CF58881882301F17A
:100E700099819E3281F480325CF061E00E940F041F
:100E8000BC01812F0E940206219621961F5FE6CFAA
:100E90008FEF9FEFF5CF803244F060E00E940F04A7
:100EA000BC01812F0E940206F0CF8FEF9FEFF8CF99
:100EB0008091E1029091E20201972091E30230914A
:100EC000E402281739070CF08BCF8091EF02909144
:100ED000F0029C012F5F3F4F3093F0022093EF020E
:100EE000E091E502F091E602E20FF31F20812E323D
:100EF00009F076CF02969093F0028093EF0270CFC4
:100F00004091E9025091EA0280CF80E098CF0F93A0
:100F10001F93CF93DF93C091E502D091E60250E09A
:100F200040E00E9443060E94E9030091EB02109109
:100F3000EC022091ED023091EE02601771078207FA
:100F4000930788F30E94DD068111EDCFD093E6026E
:100F5000C093E502DF91CF911F910F910895ACEA04
:100F6000B2E01D96EC911D978E2F90E0880F991F8F
:100F70001696ED91FC911797E80FF91F85919491C2
:100F800021EC32E03F932F939F938F9311968C9196
:100F900011978F938C918F930E94E60E0F900F9074
:100FA0000F900F900F900F900895282F362F472FF6
:100FB00064E670E00E942112822F9CE9699F800DF7
:100FC0001124E82F082E000CFF0B6B307105ACF0DC
:100FD000FF938F937F936F9380E291E09F938F9322
:100FE0004F933F930E947B138DB79EB708960FB621
:100FF000F8949EBF0FBE8DBF089516161706ACF469
:10100000FF938F937F936F938AE291E09F938F93E7
:101010004F933F930E947B138DB79EB708960FB6F0
:10102000F8949EBF0FBE8DBF0895FF938F9384E306
:1010300091E09F938F934F933F930E947B130F9068
:101040000F900F900F900F900F900895EBECF2E03F
:1010500060817181828593850C94D50785ED80939D
:10106000BC008091220290912302A0912402B091B1
:1010700025020796A11DB11D23E0B695A79597956A
:1010800087952A95D1F72091BC0024FD03C01092CA
:10109000200208954091220250912302609124027F
:1010A00070912502452B462B472B69F30097A1052C
:1010B000B10541F02AE22A95F1F700C00197A10994
:1010C000B109E1CF809121020C9466041F920F9226
:1010D0000FB60F9211242F933F938F939F93AF934B
:1010E000BF938091F2019091F301A091F401B0912E
:1010F000F5013091F10123E0230F2D3758F50196CA
:10110000A11DB11D2093F1018093F2019093F30191
:10111000A093F401B093F5018091F6019091F7014D
:10112000A091F801B091F9010196A11DB11D809324
:10113000F6019093F701A093F801B093F901BF91E4
:10114000AF919F918F913F912F910F900FBE0F9074
:101150001F90189526E8230F0296A11DB11DD2CF2E
:101160001F920F920FB60F9211242F933F934F931C
:101170005F936F937F938F939F93AF93BF93EF93FF
:10118000FF93E0910201F09103010995FF91EF9126
:10119000BF91AF919F918F917F916F915F914F918F
:1011A0003F912F910F900FBE0F901F9018951F9297
:1011B0000F920FB60F9211242F933F934F935F938B
:1011C0006F937F938F939F93AF93BF93EF93FF930F
:1011D000E0910001F09101010995FF91EF91BF911C
:1011E000AF919F918F917F916F915F914F913F91BF
:1011F0002F910F900FBE0F901F9018951F920F9276
:101200000FB60F9211242F933F934F935F936F93D9
:101210007F938F939F93AF93BF93EF93FF938091AF
:10122000B900887F803609F44AC0F0F5883209F4A5
:10123000A7C018F5803109F49BC0B8F4882309F4DD
:10124000F9C0883009F494C0FF91EF91BF91AF913C
:101250009F918F917F916F915F914F913F912F91CE
:101260000F900FBE0F901F901895883109F488C019
:10127000803251F780931E0214C0803409F49DC05F
:1012800040F48033B9F38833F9F680931E0285EC7D
:10129000B0C0803509F485C0883509F496C088341B
:1012A00099F60E942E08D0CF883909F48CC038F501
:1012B000883729F050F4883611F0803729F683E01A
:1012C000809320021092B70157C0883809F47BC080
:1012D000803919F0803809F0B7CF8091B70180329A
:1012E00008F071C0E091B70181E08E0F8093B701E3
:1012F0008091BB00F0E0E956FE4F80833DC0803B0B
:1013000039F0E0F4803A09F479C0883A09F09CCFCA
:1013100084E0809320021092960110929501E09152
:10132000BA01F091BB0109958091950181110FC01F
:1013300081E0809395011092750109C0803C09F409
:10134000A6CF883C09F4A3CF883B09F07DCFE0917C
:10135000960181E08E0F80939601F0E0EB58FE4FEE
:1013600080818093BB00909196018091950129C066
:101370008091FB018093BB0085EC8093BC0064CF1F
:1013800090911D0280911C02981758F5E0911D0262
:1013900081E08E0F80931D02F0E0E450FE4F8081CB
:1013A000E9CFE0911D0281E08E0F80931D028091B4
:1013B000BB00F0E0E450FE4F808390911D028091CD
:1013C0001C029817C8F285E8D8CFE0911D0281E091
:1013D0008E0F80931D028091BB00F0E0E450FE4F21
:1013E000808380911F0281115CCF81E08093FA019C
:1013F00084EA8093BC001092200226CF85EC809373
:10140000BC00109220028091B701803230F4E0914C
:10141000B701F0E0E956FE4F10826091B70170E02D
:10142000E091B801F091B90187E991E00995109236
:10143000B7010ACF10921E0234CFCF92DF92EF9203
:10144000FF920F931F93CF93DF93EAE4F2E01382AE
:10145000128288EE93E0A0E0B0E084839583A683B7
:10146000B78382E191E091838083EBEDF2E080E746
:1014700090E09183808381E090E09383828304E015
:1014800010E015830483178AEBECF2E081EC92E024
:101490009183808380EE93E9A4E0B0E0828393831C
:1014A000A483B58385E0E82EF12CF782E68289E1FA
:1014B00090E091878087CCEAD2E090E7C92E92E055
:1014C000D92ED982C8828AE090E09B838A830E94C9
:1014D0004F12FC01D182C0821382128215821482C3
:1014E00017821682118610869D838C8383EB92E08F
:1014F0009F838E838EEE92E0998788878EE18A871C
:1015000081E08B871C861D868E871F86888B198AB3
:101510001A8A1B8A1C8AC6E5D2E01B861A861982A3
:1015200018821E8A1F8A188E198E80E098E09F8389
:101530008E831D870C87FF86EE8686E090E0998B70
:10154000888B87E090E09B8B8A8B61E084E00E942F
:10155000EB0261E08E850E94EB0261E088890E94C7
:10156000EB0261E08A890E94EB021D8A1C8A1987BE
:101570000887DF91CF911F910F91FF90EF90DF903F
:10158000CF900895CF93DF931F92CDB7DEB77894B5
:1015900084B5826084BD84B5816084BD85B5826078
:1015A00085BD85B5816085BD80916E008160809329
:1015B0006E00109281008091810082608093810092
:1015C00080918100816080938100809180008160A2
:1015D000809380008091B10084608093B1008091FD
:1015E000B00081608093B00080917A008460809325
:1015F0007A0080917A00826080937A0080917A00EC
:10160000816080937A0080917A00806880937A006C
:101610001092C10020915C0230915D02032E000CFB
:10162000440B550B60E077E883E993E00E94871153
:10163000CA01B90129E030E040E050E00E94871182
:10164000209358023093590240935A0250935B0200
:101650008FE00E941C0310E17C01EE0CFF1C80E077
:101660000E941C038E259F251150B1F7BC01990FD4
:10167000880B990B611571058105910511F00E9488
:10168000DD0E83E089831092BD011092BC0110929F
:101690002702109249020E9448048CE094E0909343
:1016A000BB018093BA018DE094E09093B9018093DF
:1016B000B80110E001E0E12EF12C8091DD02909163
:1016C000DE02E816F9060CF04BC08091DB02909127
:1016D000DC028E0D9F1D009326028093480210921B
:1016E00027021092490281E290E00E94FD0580E00D
:1016F0000E9487048091DB029091DC028E0D9F1D79
:101700000093260280934802109227021092490209
:10171000E1E0F0E0EC0FFD1FEE0DFF1D808190E099
:1017200080529F4F0E94FD0580E00E9487048091B7
:10173000DB029091DC02E80EF91E00932602E09293
:101740004802109227021092490281E890E00E941C
:10175000FD0581E00E9487040E942E061F5FABCF2B
:101760000E942E060E94E90329E130E03093D60260
:101770002093D5020091CD021091CE022091CF028C
:101780003091D002DC01CB01800F911FA21FB31F4B
:101790008093D7029093D802A093D902B093DA0233
:1017A0000E9426080E94AF0762E082E00E94EB02DE
:1017B00085EF93E09093010180930001809169008F
:1017C000836080936900E89A43E0842E912C55EB66
:1017D000252E52E0352E11E08091F001882309F486
:1017E00011C10E94E9034090EC015090ED0160901E
:1017F000EE017090EF016419750986099709653F3C
:1018000071408105910544F3E090EA01F090EB010D
:101810008091E8019091E901E6E0EE16F10479F497
:1018200080E098E00E9456038091E8019091E901E0
:10183000F2E0EF16F104B9F48C599F4F10C0F3E0B9
:10184000EF16F10431F405969093E9018093E801D5
:10185000EBCF24E0E216F10409F090C00A969093D1
:10186000E9018093E8010E94E903C090CD02D09085
:10187000CE02E090CF02F090D002DC01CB018C0DC3
:101880009D1DAE1DBF1D8093D7029093D802A093DB
:10189000D902B093DA021092B8021092B90281E034
:1018A0009091B602911101C080E08093BA0210922B
:1018B000BB021093BC021092BD021092BE021092A5
:1018C000BF021092C002E090D502F090D602809143
:1018D000E8019091E9018E159F050CF468C08CE336
:1018E00091E00E949E068091E8019091E9018E1599
:1018F0009F050CF44AC08E199F099093E9018093CB
:10190000E8018091E6019091E7010196B4010E94FF
:1019100021129093E7018093E60121E030E0892BCA
:1019200011F030E020E0C101821B930B0E945603AE
:101930000E9431035B016C0134EF432E5524539414
:10194000612C712C0E9431036A197B098C099D0955
:10195000683E734081059105A8F321E0421A5108C1
:101960006108710888EEA80E83E0B81EC11CD11C66
:10197000411451046104710429F7B5CF4996E5E09B
:10198000EE16F10409F46BCF4FCF8091D502909100
:10199000D602880F991F880F991F843EF3E09F0796
:1019A000DCF49093D6028093D5020E9426088091A1
:1019B000E8019091E901009791F470E060E081E422
:1019C00091E00E9487070E94AF071092EB011092EE
:1019D000EA011092F00100CF83EE93E0E2CF61ECD8
:1019E00072E00E94D50761EC72E08EEB91E00E94FC
:1019F000741362EE74E08EEB91E00E9487070E9400
:101A00002608E1CF0E94E9032B013C018091D50219
:101A10009091D6022091D3023091D4022817390731
:101A200014F54091D7025091D8026091D90270917B
:101A3000DA024416550666067706A8F04091D102F0
:101A40005091D202841B950B9093D6028093D502BD
:101A50008217930784F53093D6022093D5020E9413
:101A600026080E94AF078091B8029091BC028111B4
:101A7000BAC09111BAC00E942E061093BC02809188
:101A8000B4029091B502092E000CAA0BBB0B840D79
:101A9000951DA61DB71D8093BD029093BE02A09315
:101AA000BF02B093C00280E090E0892B09F494CE8D
:101AB0000E94000090CE8091CD029091CE02A09124
:101AC000CF02B091D002840D951DA61DB71D809345
:101AD000D7029093D802A093D902B093DA02BFCF75
:101AE0001092BB022091AE023091AF028091B702FA
:101AF000882301F16901330FEE08FF0881E090E0CF
:101B0000A0E0B0E092E0C916D104E104F1047CF059
:101B10000E948E0EA70196012150310941095109F9
:101B20000E948711DC01CB010196A11DB11D80939C
:101B3000B9027AC08091BA028093B9028F5F809314
:101B4000BA02821713060CF46FC01093BA026CC06D
:101B50002091AE023091AF028091B702882399F0B4
:101B60006901330FEE08FF0860E01C141D041E0419
:101B70001F0434F40E948E0EA70196010E94871163
:101B80006093B90251C08091BA028093B9028F5F0D
:101B9000821713061CF48093BA0246C01092BA0250
:101BA00043C081E04EC0E090B002F090B102C301AA
:101BB000B2010E94DD06811161C0F70120853185E7
:101BC0002150310931872087232B09F458C04481E3
:101BD000558162817381808191810E944306F70162
:101BE000978386834BC09923D9F14091BD025091D0
:101BF000BE026091BF027091C00244155505660592
:101C0000770508F050CF1092BC02811129C0809155
:101C1000B602882309F49CCF8091BB02811160CF6A
:101C20001093BB021092B9020E94AF07E090B0027D
:101C3000F090B1028091BB02882309F4B2CF809169
:101C4000B60290E0F70191878087448155816281D7
:101C50007381808191810E944306F7019783868377
:101C60008091EB029091EC02A091ED02B091EE0216
:101C7000481659066A067B0608F095CF81E08093E6
:101C8000B80211CF8F929F92AF92BF92CF92DF9204
:101C9000EF92FF92CF93DF93EC01688179818A8183
:101CA0009B81611571058105910521F464E279ED4F
:101CB0008BE597E02DE133EF41E050E00E94871182
:101CC00049015A019B01AC01A7EAB1E40E94A611A7
:101CD0006B017C01ACEEB4EFA50194010E94B4113C
:101CE000C60ED71EE81EF91EF7FE06C081E0C81A10
:101CF000D108E10880E8F80AC882D982EA82FB822A
:101D0000C701B6019F77DF91CF91FF90EF90DF90F1
:101D1000CF90BF90AF909F908F9008958F929F9299
:101D2000AF92BF92CF92DF92EF92FF926091040147
:101D3000709105018091060190910701611571056F
:101D40008105910521F464E279ED8BE597E02DE1C1
:101D500033EF41E050E00E94871149015A019B0195
:101D6000AC01A7EAB1E40E94A6116B017C01ACEEC4
:101D7000B4EFA50194010E94B411C60ED71EE81E4F
:101D8000F91EF7FE06C081E0C81AD108E10880E814
:101D9000F80AC0920401D0920501E0920601F09287
:101DA0000701C701B6019F77FF90EF90DF90CF90BA
:101DB000BF90AF909F908F900895609304017093AF
:101DC000050180930601909307010895AEE0B0E00D
:101DD000ECEEFEE00C94C7110D891E898EE08C8319
:101DE0001A8309838FEF9FE79E838D83AE01475E41
:101DF0005F4F6F89788DCE0101960E94090F2F8168
:101E00003885020F131FF80110822E96E4E00C941F
:101E1000E311ABE0B0E0EFE0FFE00C94B9117C011E
:101E20003B018A01FC0117821682838181FFC8C1B0
:101E3000CE0101965C01F7019381F30193FD859139
:101E400093FF81913F01882309F453C1853239F40E
:101E500093FD859193FF81913F01853229F4B7016C
:101E600090E00E94F910E7CF912C212C312CFFE15A
:101E7000F31538F08B3211F190F4803209F183328E
:101E800029F137FC3CC020ED280F2A3050F536FEF2
:101E900020C08AE0989E200D1124922E06C08D321B
:101EA00091F0803371F7689430F8F30193FD8591D8
:101EB00093FF81913F018111DACF21C0689431F8FD
:101EC000689432F8F2CF689433F8EFCF689434F81E
:101ED000ECCFEAE02E9E200D1124222E689435F8D6
:101EE000E4CF8E3229F436FC04C1689436F8DDCF95
:101EF0008C3619F4689437F8D8CF8836B1F2982F19
:101F00009F7D95549330E0F08336A1F18337C1F182
:101F1000833509F063C02801F2E04F0E511CF8012F
:101F2000C080D180692D70E036FC02C06FEF7FEF7A
:101F3000C6010E94E3104C01689437F882010AC080
:101F40000C5F1F4FFFE3F98388248394912C650174
:101F5000E89437F833FE2DC0522C8114910471F5AA
:101F6000552009F468CFB70180E290E00E94F91093
:101F70005A94F6CFF801808189830E5F1F4FE4CF1A
:101F80002801F2E04F0E511CF801C080D180692D6C
:101F900070E036FC02C06FEF7FEFC6010E94EE10CA
:101FA0004C018201D5CFB70180E290E00E94F91088
:101FB0002A942814190409F0B0F7CECFF60137FCA3
:101FC000859137FE81916F01B70190E00E94F91071
:101FD00051105A94F1E08F1A9108BFCF843619F04E
:101FE000893609F077C0F80137FE6BC060817181D6
:101FF000828193810C5F1F4FF32DFF763F2E97FF59
:1020000009C090958095709561957F4F8F4F9F4F38
:10201000689437F82AE030E0A5010E942911C82E03
:10202000CA188C2C432C36FE0CC0E89440F8C91416
:1020300040F434FE05C032FC03C0F32DFE7E4F2E6B
:10204000892C44FE95C0FE01EC0DF11D808180338A
:1020500009F087C0242D297E422E842D8870582EA9
:1020600043FC95C040FE8FC09C2C821418F42C0CAD
:10207000922C981844FE91C0B70180E390E00E9432
:10208000F91042FE09C088E790E041FE02C088E5F1
:1020900090E0B7010E94F910C91408F48AC0CA94EC
:1020A000D12C9FEFC91AD90ACA0CDB1CF601829108
:1020B0006F01B70190E00E94F910AC14BD04B1F7B4
:1020C0004FCF60817181072E000C880B990B0E5F3A
:1020D0001F4F92CFD32CE894D4F82AE030E0853714
:1020E00039F1232D297FD22E8F3601F148F488351E
:1020F000A9F0F701868197812B96E2E10C94D51126
:10210000803749F08837A9F7D4FE02C06894D2F826
:1021100020E130E00DC06894D4F8F6CF34FE03C05F
:10212000822F8660D82E20E132E002C028E030E025
:10213000F801D7FE0FC060817181828193810C5FAD
:102140001F4FA5010E942911C82ECA183D2CE894E2
:1021500037F867CF6081718190E080E00E5F1F4F9C
:10216000F0CF42FC02C0839478CF8394839475CFE0
:10217000842D867809F471CFF6CFB70180E290E024
:102180000E94F91083948214C0F3512C73CF522C07
:102190005818821408F46ECFF8CF842D867809F48D
:1021A0007BCF8BE241FE80E247FC8DE2B70190E0FD
:1021B00071CFB70180E390E00E94F9109A946CCF40
:1021C0008FEF9FEF99CFFC01059061507040011097
:1021D000D8F7809590958E0F9F1F0895FC01615050
:1021E000704001900110D8F7809590958E0F9F1F39
:1021F00008950F931F93CF93DF93182F092FEB01AF
:102200008B8181FD09C01FEF0FEF812F902FDF9190
:10221000CF911F910F91089582FF14C02E813F81AD
:102220008C819D81281739073CF4E881F981CF0121
:1022300001969983888310838E819F8101969F8365
:102240008E83E3CFE885F985812F0995892BA1F34A
:10225000DACFFA01AA27283051F1203181F1E89430
:102260006F936E7F6E5F7F4F8F4F9F4FAF4FB1E089
:102270003ED0B4E03CD0670F781F891F9A1FA11D84
:10228000680F791F8A1F911DA11D6A0F711D811D85
:10229000911DA11D20D009F468943F912AE0269F4A
:1022A00011243019305D3193DEF6CF010895462FA9
:1022B0004770405D4193B3E00FD0C9F7F6CF462F8A
:1022C0004F70405D4A3318F0495D31FD40524193F3
:1022D00002D0A9F7EACFB4E0A695979587957795B0
:1022E0006795BA95C9F700976105710508959B0137
:1022F000AC010A2E06945795479537952795BA95C0
:10230000C9F7620F731F841F951FA01D0895052E26
:1023100097FB1EF400940E949E1157FD07D00E9467
:10232000F01107FC03D04EF40C949E11509540958B
:10233000309521953F4F4F4F5F4F08959095809571
:10234000709561957F4F8F4F9F4F08950E94121295
:10235000A59F900DB49F900DA49F800D911D1124F9
:102360000895B7FF0C94A6110E94A611821B930B2F
:1023700008952F923F924F925F926F927F928F9229
:102380009F92AF92BF92CF92DF92EF92FF920F9304
:102390001F93CF93DF93CDB7DEB7CA1BDB0B0FB60E
:1023A000F894DEBF0FBECDBF09942A8839884888CB
:1023B0005F846E847D848C849B84AA84B984C88461
:1023C000DF80EE80FD800C811B81AA81B981CE0F58
:1023D000D11D0FB6F894DEBF0FBECDBFED0108953D
:1023E000A1E21A2EAA1BBB1BFD010DC0AA1FBB1F19
:1023F000EE1FFF1FA217B307E407F50720F0A21B8B
:10240000B30BE40BF50B661F771F881F991F1A94F7
:1024100069F760957095809590959B01AC01BD0121
:10242000CF010895A29FB001B39FC001A39F700D7B
:10243000811D1124911DB29F700D811D1124911DCC
:10244000089597FB072E16F4009407D077FD09D066
:102450000E943B1207FC05D03EF4909581959F4F5A
:102460000895709561957F4F0895EE0FFF1F0590B9
:10247000F491E02D0994AA1BBB1B51E107C0AA1FD0
:10248000BB1FA617B70710F0A61BB70B881F991F15
:102490005A95A9F780959095BC01CD0108950F93A9
:1024A0001F93CF93DF938230910510F482E090E088
:1024B000E091F702F091F80230E020E0B0E0A0E017
:1024C000309799F42115310509F44AC0281B390BBE
:1024D00024303105D8F58A819B816115710589F118
:1024E000FB0193838283FE0111C0408151810281EF
:1024F000138148175907E0F04817590799F41097C6
:1025000061F012960C93129713961C933296CF019A
:10251000DF91CF911F910F9108950093F7021093CF
:10252000F802F4CF2115310551F04217530738F066
:10253000A901DB019A01BD01DF01F801C1CFEF0163
:10254000F9CF9093F8028093F702CDCFFE01E20F0E
:10255000F31F819391932250310939832883D7CF78
:102560002091F5023091F602232B41F420910A01CB
:1025700030910B013093F6022093F502209108016F
:10258000309109012115310541F42DB73EB7409135
:102590000C0150910D01241B350BE091F502F091D7
:1025A000F602E217F307A0F42E1B3F0B281739079A
:1025B00078F0AC014E5F5F4F2417350748F04E0F9F
:1025C0005F1F5093F6024093F502819391939FCF42
:1025D000F0E0E0E09CCFCF93DF930097E9F0FC01BF
:1025E000329713821282A091F702B091F802ED01A6
:1025F00030E020E01097A1F420813181820F931FF9
:102600002091F5023091F6022817390709F061C0D0
:10261000F093F602E093F502DF91CF910895EA017D
:10262000CE17DF07E8F54A815B819E014115510510
:10263000B1F7E901FB83EA8349915991C40FD51F92
:10264000EC17FD0761F4808191810296840F951F3C
:10265000E90199838883828193819B838A83F0E057
:10266000E0E012968D919C9113970097B9F52D910A
:102670003C911197CD010296820F931F2091F50294
:102680003091F6022817390739F6309751F5109234
:10269000F8021092F702B093F602A093F502BCCFB5
:1026A000D383C28340815181840F951FC817D907F6
:1026B00061F44E5F5F4F88819981480F591F5183A4
:1026C00040838A819B81938382832115310509F0A0
:1026D000B0CFF093F802E093F7029ECFFD01DC014A
:1026E000C0CF13821282D7CFFB01DC0101900D9283
:1026F0000020E1F70895AEE0B0E0E1E8F3E10C94EA
:10270000C7110D891E8986E08C831A8309838FEF98
:102710009FE79E838D83AE01475E5F4F6F89788D03
:10272000CE0101960E94090F2F813885020F131FD9
:10273000F80110822E96E4E00C94E311F894FFCF98
:102740000E040E04010000000000F90280000000E9
:102750000000CE05A105400677059A058705780596
:10276000242532642E2530326400242531642E2540
:102770003032640024202E25303264005741495401
:1027800000202020205448414E4B20594F552020F6
:042790002020000005
:00000001FF
